{
  "_format": "hh-sol-artifact-1",
  "contractName": "Wallet",
  "sourceName": "contracts/Wallet.sol",
  "abi": [
    {
      "stateMutability": "payable",
      "type": "fallback"
    },
    {
      "inputs": [],
      "name": "getBalance",
      "outputs": [
        {
          "internalType": "uint256",
          "name": "",
          "type": "uint256"
        }
      ],
      "stateMutability": "view",
      "type": "function"
    },
    {
      "inputs": [
        {
          "internalType": "address payable",
          "name": "_to",
          "type": "address"
        },
        {
          "internalType": "uint256",
          "name": "_amount",
          "type": "uint256"
        }
      ],
      "name": "withdrawMoney",
      "outputs": [],
      "stateMutability": "nonpayable",
      "type": "function"
    },
    {
      "stateMutability": "payable",
      "type": "receive"
    }
  ],
  "bytecode": "0x608060405234801561001057600080fd5b506104ac806100206000396000f3fe60806040526004361061002d5760003560e01c806312065fe01461008b578063f274c897146100b657610089565b3661008957346000803373ffffffffffffffffffffffffffffffffffffffff1673ffffffffffffffffffffffffffffffffffffffff1681526020019081526020016000206000828254610080919061032a565b92505081905550005b005b34801561009757600080fd5b506100a06100df565b6040516100ad91906102fe565b60405180910390f35b3480156100c257600080fd5b506100dd60048036038101906100d89190610270565b610125565b005b60008060003373ffffffffffffffffffffffffffffffffffffffff1673ffffffffffffffffffffffffffffffffffffffff16815260200190815260200160002054905090565b6000803373ffffffffffffffffffffffffffffffffffffffff1673ffffffffffffffffffffffffffffffffffffffff168152602001908152602001600020548111156101a6576040517f08c379a000000000000000000000000000000000000000000000000000000000815260040161019d906102de565b60405180910390fd5b806000803373ffffffffffffffffffffffffffffffffffffffff1673ffffffffffffffffffffffffffffffffffffffff16815260200190815260200160002060008282546101f49190610380565b925050819055508173ffffffffffffffffffffffffffffffffffffffff166108fc829081150290604051600060405180830381858888f19350505050158015610241573d6000803e3d6000fd5b505050565b60008135905061025581610448565b92915050565b60008135905061026a8161045f565b92915050565b6000806040838503121561028357600080fd5b600061029185828601610246565b92505060206102a28582860161025b565b9150509250929050565b60006102b9601083610319565b91506102c48261041f565b602082019050919050565b6102d8816103e6565b82525050565b600060208201905081810360008301526102f7816102ac565b9050919050565b600060208201905061031360008301846102cf565b92915050565b600082825260208201905092915050565b6000610335826103e6565b9150610340836103e6565b9250827fffffffffffffffffffffffffffffffffffffffffffffffffffffffffffffffff03821115610375576103746103f0565b5b828201905092915050565b600061038b826103e6565b9150610396836103e6565b9250828210156103a9576103a86103f0565b5b828203905092915050565b60006103bf826103c6565b9050919050565b600073ffffffffffffffffffffffffffffffffffffffff82169050919050565b6000819050919050565b7f4e487b7100000000000000000000000000000000000000000000000000000000600052601160045260246000fd5b7f6e6f7420656e6f7567682066756e647300000000000000000000000000000000600082015250565b610451816103b4565b811461045c57600080fd5b50565b610468816103e6565b811461047357600080fd5b5056fea2646970667358221220f23b1aa8742d7618ca16130a364883bce1d496f6e4a9dab952b96dede2c427f664736f6c63430008040033",
  "linkReferences": {},
  "deployedLinkReferences": {}
}